:020000020000FC
:020000000EC030
:0200060071C0C7
:0200120076C0B6
:10001C0088C0AFEFA1BBAFEFA2BBA0E2A4BBAEE325
:10002C00A5BBAEE3A7BBA1E0A8BBAFE5ADBFA4E009
:10003C00AEBF41E051E0662774E23327332400273A
:10004C0011272227CC27DD276624772484E690E02D
:10005C00AA27A0936300A0936400A0936500A093CB
:10006C006F00A0937000A0937100A0936600A09302
:10007C006700A0936800A0936900A0936A00A09306
:10008C006B00A0936C00A0936D00A0936E00A4E095
:10009C00A3BFA9E0AEBDA0E0ABBDA0E0AABDA0E0AF
:1000AC00A9BFA8E0A2BDAFE0A5BDAFE1A3BDA2B5BD
:1000BC00A830E9F7A0ECA8BFA1E8A9BFA0E4A7B9B4
:1000CC00A0E8A5BFA0E8A8B9F894A0E0A6B97894D8
:1000DC008895FACFAEE8A6B9789488950895320140
:1000EC008615970508F0332430FC2ED030E45524C7
:1000FC0044241895A2EBA2BF4A9571F444E0D8D2DF
:10010C00A1E030FCA1E8AFBD30FCAD9830FEAD9A5B
:10011C00839411F4A0E88A2ECFD1AA273A13DADF00
:10012C001895303081F0A4B1B5B14A0E5B1E3A95EA
:10013C0051F4569447945694479456944794569435
:10014C0047945694479418957A9529F474E221961D
:10015C0011F4CFEFDFEF9F92AF92BF92CF92DF926D
:10016C0090906B00A0906C00B0906D00C0906E00F1
:10017C00AAB5BBB511969A0EAB1EAA27BA1ECA1EFB
:10018C0028F4AFEF9A2EAA2EBA2ECA2E90926B009C
:10019C00A0926C00B0926D00C0926E00A1E20A2E8B
:1001AC008894AA27A0937200A0937300A093740064
:1001BC00A0937500991CAA1CBB1CCC1C0A9409F4B6
:1001CC0044C0A0917200AA1FA0937200A09173006A
:1001DC00AA1FA0937300A0917400AA1FA09374008F
:1001EC00A0917500AA1FA0937500A0917200A8564B
:1001FC00A0937200A0917300A140A0937300A091F2
:10020C007400A040A0937400A0917500A040A0932E
:10021C007500C8F4A0917200B8E6AB0FA093720001
:10022C00A0917300B1E0AB1FA0937300BB27A0910A
:10023C007400AB1FA0937400A0917500AB1FA0932A
:10024C0075008894B7CF0894B5CF90926F00A092A8
:10025C007000B092710090906600A0906700B09012
:10026C006800C0906900D0906A00AAB5BBB5119621
:10027C006A9E900CA11C0024B01CC01CD01CA8F0C1
:10028C007A9EA00CB11C0024C01CD01C70F06B9E7C
:10029C00A00CB11C0024C01CD01C38F07B9EB00CF0
:1002AC00C11C0024D01C08F006C0AFEF9A2EAA2E59
:1002BC00BA2ECA2EDA2E90926600A0926700B092E7
:1002CC006800C0926900D0926A00A9E20A2E889454
:1002DC00AA27A0937200A0937300A0937400A0931C
:1002EC007500A0937600991CAA1CBB1CCC1CDD1CB1
:1002FC000A9409F453C0A0917200AA1FA093720033
:10030C00A0917300AA1FA0937300A0917400AA1F60
:10031C00A0937400A0917500AA1FA0937500A091E2
:10032C007600AA1FA0937600A0917200A05AA09309
:10033C007200A0917300AC48A0937300A09174005C
:10034C00A040A0937400A0917500A040A0937500EC
:10035C00A0917600A040A0937600F0F4A0917200DA
:10036C00B0EAAB0FA0937200A0917300BCE8AB1F76
:10037C00A0937300BB27A0917400AB1FA0937400D3
:10038C00A0917500AB1FA0937500A0917600AB1FD8
:10039C00A09376008894A7CF0894A5CFAA27CA1655
:1003AC00DA0621F0AFEF9A2EAA2EBA2E90926300A5
:1003BC00A0926400B0926500DF90CF90BF90AF9098
:1003CC009F900895083EA3E01A07A0E02A07B0F01A
:1003DC0069C00031A7E21A07A0E02A0778F062C0D2
:1003EC000F3FAFEF1A07A0E02A0740F05BC00F37B2
:1003FC00A6E91A07A8E92A0708F054C09924AA24E8
:10040C00BB24CC24DD24EE24FF2466270034A2E494
:10041C001A07AFE02A0728F0005412442F40F39437
:10042C00F5CF003AA6E81A07A1E02A0728F0005AEF
:10043C0016482140E394F5CF0031A7E21A07A0E05B
:10044C002A0728F0005117422040D394F5CF083EDC
:10045C00A3E01A0720F0085E1340C394F8CF0436CB
:10046C00A0E01A0720F004561040B394F8CF0A30DD
:10047C0018F00A50A394FBCF902EAA27DA16EA069E
:10048C00FA0631F4553069F0563059F0CA1649F075
:10049C009A2CAB2CBC2CCD2CDE2CEF2CFF24639592
:1004AC00ECCF0895AAE09A2EAA2EBA2ECA2EDD24DD
:1004BC00EE24FF246FEF0895A1E0A8BBEFE6F2E075
:1004CC00A52FAA0FAA0FA40FA550EA0FAA27FA1F4F
:1004DC00099417C01AC01EC025C02FC034C038C024
:1004EC003FC049C04EC052C056C061C064C06BC052
:1004FC0072C07CC085C08EC097C0A7C0B1C0BBC045
:10050C00C5C0A1ECA2BBC29A0895A92DA1D1A2BBD2
:10051C00C39A0895AA2D9CD1613009F4AF77A2BB80
:10052C00C49A0895AB2D94D1603009F4AF77A2BB77
:10053C00C59A222783014DDF0895AFEF84FCA1EC0F
:10054C00A2BBC29A0895A92D83D1A2BBC39A0895C8
:10055C00AA2D7ED1613009F4AF77A2BBC49A08955D
:10056C00AB2D76D1603009F4AF77A2BBC59A2227A8
:10057C008C012FDF0895AFEF84FCA8E8A2BBC29AD0
:10058C000895A92D65D1A2BBC39A0895AA2D60D157
:10059C00A2BBC49A0895AB2D5BD1AF77A2BBC59A11
:1005AC00AAB5BBB5119622278D010CDF0895ABE8D7
:1005BC00A2BBC29A0895A92D4BD1623009F4AF7732
:1005CC00A2BBC39A0895AA2D43D1613009F4AF7729
:1005DC00A2BBC49A0895AB2D3BD1603009F4AF7720
:1005EC00A2BBC59A22278E01FBDE0895A92D30D11E
:1005FC00633009F4AF7787FEAFEFA2BBC29A0895C0
:10060C00AA2D26D1623009F4AF7787FEABE8A2BBE6
:10061C00C39A0895AB2D1CD1613009F4AF7787FED6
:10062C00A8E8A2BBC49A0895AC2D12D1603009F48D
:10063C00AF7787FEAFEFA2BBC59A00916F00109108
:10064C00700020917100D3DE0895A92D01D1633083
:10065C0011F484FCAF7787FEAFEFA2BBC29A08956A
:10066C00AA2DF6D0623011F484FCAF7787FEABEA8A
:10067C00A2BBC39A0895AB2DEBD0613011F484FC6E
:10068C00AF7787FEA6E8A2BBC49A0895AC2DE0D044
:10069C00603011F484FCAF7787FEAFEFA2BBC59A34
:1006AC00009163001091640020916500A0DE089514
:1006BC00A0916100A03019F0AA95A0936100B091AF
:1006CC006000A3B3AC71A0936000BA1781F0B09135
:1006DC006100B03061F4A2FF05C0A3FF05C0A4FF08
:1006EC0005C005C05AD003C02ED001C0A2D0B5E0C1
:1006FC00A2FFB0936100A3FFB0936100A4FFB0937D
:10070C006100AC3129F0B0916200B395B0936200F6
:10071C00B0916100B03019F4B0E0B0936200B091C8
:10072C006200B43679F4B1E6B0936200A2FF05C062
:10073C00A3FF05C0A4FF05C005C02FD003C003D084
:10074C0001C07CD00895EFEAF3E0E50FAA27FA1F69
:10075C00099406C005C005C014C01CC01CC01CC038
:10076C000895803DA7E09A0758F4883EA3E09A07C5
:10077C0008F00596843FA1E09A0708F004960196CC
:10078C000895AAB5BBB5A39509F4AA95BB27BBBD23
:10079C00AABD0895089508950895E9EDF3E0E50FD5
:1007AC00AA27FA1F099406C005C005C014C01DC0B5
:1007BC001CC01BC008958135A0E09A0758F0893EF3
:1007CC00A3E09A0708F00597853FA1E09A0708F087
:1007DC00049701970895AAB5BBB5AA95AF3F09F444
:1007EC00AA27BB27BBBDAABD089530FC21C0CC27CE
:1007FC00DD27AA27A0936300A0936400A093650053
:10080C00A0936F00A0937000A0937100A09366005A
:10081C00A0936700A0936800A0936900A0936A005E
:10082C00A0936B00A0936C00A0936D00A0936E003E
:10083C0008955A9509F456E0882408955395573035
:10084C0008F051E03394B5E6B09362008824089523
:10085C00AC3008F0ABE0F8E0E0E7EA0FAA27FA1FAB
:10086C00A4910895C0F9A4B0999282F88090FEFFEB
:00000001FF
